:1000000012C02AC029C028C0FCC026C025C024C0F8
:1000100023C022C021C069C17EC197C1ACC1C0C18B
:10002000D8C118C23FC211241FBECFEDCDBF10E012
:10003000A0E6B0E0EAE3F7E003C0C89531960D9280
:10004000AA3AB107D1F710E0AAEAB0E001C01D92C8
:10005000AE3BB107E1F720C1D3CF01972FEF8F3F20
:10006000920779F020E030E0009759F02F5F3F4F82
:1000700042E02A393407C0F301972FEF8F3F9207F0
:1000800089F70895009711F00197F1F70895C29A42
:1000900000C0C2980895882311F0C09A01C0C0988A
:1000A000C19A8FE087BBC29A00C096B3C29800C0C5
:1000B000C29A00C086B3C2988295807F982B892F00
:1000C0009927089580E0E7DF87FDFCCF82E090E08C
:1000D000D9DF80E0E0DF992708950F931F93082F61
:1000E000F1DF8FEF87BB10EF802F812388BBCFDF3D
:1000F000802F992724E0880F991F2A95E1F7812303
:1001000088BBC5DF18BB1F910F910895982F6623F8
:1001100011F4905801C09054892FDFDF089508959D
:10012000D1DF9927089581E0D8DF089582E0D5DFF7
:100130000895CF93C82FC6DFCA3041F4803410F43D
:1001400080E401C080E08058C8DF0EC08FEF87BB1D
:100150008C2F807F816088BB9ADFC295C07FC16091
:10016000C8BB95DF80EF88BBCF910895CF93DF9315
:10017000D92FC82F8991882321F0DBDF899188232B
:10018000E1F7DF91CF910895CF93DF93D92FC82F57
:10019000F92FE82F2196C895802D882341F0C9DFDB
:1001A000FD2FEC2F2196C895802D8823C1F7DF9174
:1001B000CF9108950F931F93082F8FEF87BB80E88F
:1001C0009EE360DF10E318BB62DF80E893E15ADF53
:1001D00018BB5DDF80E490E055DF18BB58DF80E49A
:1001E00090E050DF80E288BB52DF88E276DF88E073
:1001F00074DF99DF86E071DF802F6FDF1F910F9131
:1002000008951F920F920FB60F9211242F933F93D0
:100210004F935F936F937F938F939F93AF93BF930E
:10022000EF93FF938091AA008F5F8093AA00909133
:10023000B9009F5F9093B900843628F01092AA000D
:1002400081E08093B800913019F432D21092B90055
:100250008091BB009091BC0021E0843F920738F46C
:1002600001969093BC008093BB00969A01C096982B
:1002700080B38093BD00FF91EF91BF91AF919F91AB
:100280008F917F916F915F914F913F912F910F903F
:100290000FBE0F901F901895CFEDD0E0DEBFCDBF01
:1002A0008FEF87BB90E791BB8FE382BB1DBC1CBC6B
:1002B0008BE08EBD82E08BBD9ABD80E489BF8EE06D
:1002C00079DF969AA0D180E88FBF2DD1809161000F
:1002D0009927AA27BB27F92FE82F3197E830F10596
:1002E00008F016C1E55FFF4F09949091B40091307A
:1002F00059F48091AB008F5F8093AB008A3010F08F
:100300001092AB00909360009091B500913009F08D
:1003100077C082E059C09091B400913059F4809137
:10032000AC008F5F8093AC00863010F01092AC0070
:10033000909360008091B500813009F061C0809396
:10034000600083E0809361005BC09091B4009130C5
:1003500059F48091AD008F5F8093AD008A3010F02A
:100360001092AD00909360009091B500913009F02B
:1003700047C084E029C09091B400913059F4809135
:10038000AE008F5F8093AE00863010F01092AE000A
:10039000909360009091B500913091F585E014C084
:1003A0009091B400913059F48091AF008F5F8093A9
:1003B000AF008A3010F01092AF00909360009091DF
:1003C000B5009130E9F486E080936100909360007D
:1003D00017C09091B400913059F48091B0008F5FB4
:1003E0008093B0008A3010F01092B00090936000BB
:1003F0008091B500813021F480936100809360008A
:100400008091AB008823A1F48091AC00882381F413
:100410008091AD00882361F48091AE00882341F47F
:100420008091AF00882321F48091B000882349F0A7
:100430008091B300813029F48093600087E080933D
:1004400061008091B600813009F061C08093610045
:1004500064D15DC0E9D08091AB008823D1F4809154
:10046000AC008823B1F48091AD00882391F4809191
:10047000AE00882371F48091AF00882351F48091FD
:10048000B000882331F481E08093600088E080939D
:1004900061008091B3008130D1F58093600080933A
:1004A000610035C01092BA0094988CE291E0D5DDDD
:1004B000949A8CE291E0D1DD20E030E08091B300AD
:1004C000882361F48091B400882341F48091B500C1
:1004D000882321F48091B600882311F021E030E0D8
:1004E0002130310519F485E08093BA001092AA00FA
:1004F0001092B80009D18091BA008F5F8093BA0042
:10050000843090F281E08093610080936000FCD0A1
:1005100080E285BF85B7806285BF889585B78F7D6E
:1005200085BF15BED2CECF93C0916000C13009F017
:1005300068C080916100873038F4F5DD82E690E094
:1005400015DE6C2F88E0E2DD80916100873021F4B8
:10055000EADD8FE690E00ADE80916100883021F4C8
:10056000E2DD8FE790E002DE6C2F88E0CFDD809146
:10057000B0008063DEDD8091AF008063DADD8DE85E
:1005800090E0F4DD8091AE008063D3DD8091AD001A
:100590008063CFDD8DE890E0E9DD8091AC00806381
:1005A000C8DD8091AB008063C4DD80916100813043
:1005B00019F46C2F8FE0AADD80916100823019F46C
:1005C0006C2F8EE0A3DD80916100833019F46C2FD5
:1005D0008CE09CDD80916100843019F46C2F8BE0FD
:1005E00095DD80916100853019F46C2F89E08EDDF6
:1005F00080916100863019F46C2F88E087DD1092BD
:100600006000CF9108958FDD8FE890E0AFDD61E06D
:1006100085E07CDD81EA90E0A9DD61E081E176DDC5
:100620008CED95E01ADD08958091B8008130E9F5F0
:100630008091AB00882321F081508093AB0032C0C1
:1006400099E09093AB008091AC00882321F0815019
:100650008093AC0027C025E02093AC008091AD00D2
:10066000882321F081508093AD001CC09093AD0091
:100670008091AE00882321F081508093AE0012C09B
:100680002093AE008091AF00882321F081508093A9
:10069000AF0008C09093AF008091B00081118150ED
:1006A0008093B00081E0809360001092B8000895BC
:1006B00080B380952091BD0028232093B70080B39C
:1006C00099278F7190704F9721F01092BC00109273
:1006D000BB00332723FF03C081E08093B60020FFD7
:1006E00007C081E08093B3001092AA001092B80076
:1006F00021FF03C081E08093B40022FF03C081E0AA
:100700008093B500089508951092B5001092B4003A
:100710001092B3001092B60008951092AB001092A0
:10072000AC001092AD001092AE001092AF0010928B
:0A073000B00081E08093600008959E
:10073A000101416A616E206173657475733A004103
:10074A00696B6161206A846C6A656C6C843A0041E9
:10075A00696B61206C6F707075693A20003A0045C8
:10076A006C6B6572686F203034204A532652483ABF
:0A077A0000416A617374696E0000AB
:00000001FF
