:02000000602876
:080008009800030E9700920A14
:1000100003309205031D1F28A40A1F30A4050C08F5
:1000200099000D089A000E089B000F089C002608F6
:10003000AA002708AB002808AC002908AD000F3043
:1000400085001D08240203183E28AE00AE09AE0A42
:100050001D0CAF000310AF0C03102F0C2E02031C5D
:1000600034281208193E362812082A3E8400000857
:1000700086001208133E8400000885000B11170E3D
:100080008300980E180E0900030E9F00340891009B
:10009000FF309E0012080F39031D4A289E0B4A2884
:1000A000910B48281F0E830008009100030E9F004B
:1000B00048283508A000FF305520A00B5B28080019
:1000C000850186018316003085000030860083128A
:1000D0000E3093000D3094000B30950007309600E1
:1000E0000330920064008316403081008312003098
:1000F000A400A0308B001030B4000130B5006522A0
:100100006B22592020309D00992159209921592096
:100110002030B4001030DF211030B40059206B22A1
:10012000652200309D008F308C009130A600083091
:10013000B42109304E226B221030FE216522592055
:100140001030692110308D2110305D211030812157
:100150005920F0308C00A600083036226B22103077
:10016000FE2165220730B400013051210130872182
:10017000013051211030B400652210306921013066
:100180005121013087216522103081216B225920B5
:1001900020307B2101308721652220308D212030C5
:1001A0005D2120306F2159200830F4210830EA21E8
:1001B0000530C1212030FE2120300822592099210C
:1001C000592099211030592057211030EA21103040
:1001D000CB210530FE21053008225920103069213D
:1001E000FE308C00033002230230F722033002235A
:1001F0001030EA210330D72110305D211030082261
:1002000059202030F4210630512110305721103070
:10021000AA211030B400803055206522F8308C00BF
:10022000CC30A600A700A800A9001030B4210630E9
:1002300036221030F4211030EA210730C12110306D
:100240005D21103008225920992159200630B40030
:10025000572106305D2159203030B4001030DF21A5
:100260000630B40000309D0077221030B4215030A9
:1002700055200130512101308721013051210130B9
:100280008721FE308C00023002230230F7226522E3
:100290001030AA216B2220309D0059209921552031
:1002A0007F28A2003230B60022081B230800A200DB
:1002B0002630B60022081B230800A2002A30B60010
:1002C00022081B230800A2005230B60022081B237C
:1002D0000800A2004630B60022081B230800A20036
:1002E0004A30B60022081B230800A2005130B60095
:1002F00022081B230800A2004530B60022081B2359
:100300000800A2004930B60022081B230800A20002
:100310003130B60022081B230800A2002530B600A9
:1003200022081B230800A2002930B60022081B2344
:1003300008000530B40010305520013051216522ED
:100340006B221530552071227722103055206522FE
:100350006B220800A200030EA500220855209D0B69
:10036000AD29250E83000800A200030EA500220877
:1003700055209D0A20301D02031CB729250E83003D
:100380000800A0000530AA21A03055200530B42176
:10039000A00BC2290800A1003C308C00CF308D009A
:1003A000F3308E003C308F00210802230800A000AB
:1003B0004420652244207122A00BD8290800A00007
:1003C000712277220330552065226B224420A00B36
:1003D000E0290800A2002130A000220855200310C7
:1003E0001222A00BED290800A2002130A000220853
:1003F000552003101B22A00BF7290800A200203073
:10040000A0002208552003141222A00B012A080084
:10041000A2002030A0002208552003141B22A00BAC
:100420000B2A08008B138B1B122A8C0D8D0D8E0D41
:100430008F0D8B1708008B138B1B1B2AA60DA70D86
:10044000A80DA90D8B1708008B138B1B242A8F0C6A
:100450008E0C8D0C8C0C8B1708008B138B1B2D2A8C
:10046000A90CA80CA70CA60C8B170800A100013042
:10047000B000B1002130A0001030552030088300BA
:1004800012220308B0003108830020182D2203082F
:10049000B100A00B3C2AA10B3A2A0800A1000130B0
:1004A000B000B1002130A00010305520300883008A
:1004B00012220308B000310883001B220308B10098
:1004C000A00B542AA10B522A0800FF308C008D008B
:1004D0008E008F000800FF30A600A700A800A9002A
:1004E000080000308C008D008E008F000800003066
:1004F000A600A700A800A90008008312B300890085
:10050000831608148312080832188C05B2188C0060
:10051000321D8C2A08098C04B30A3308890083161B
:1005200008148312080832188D05B2188D00321D88
:100530009B2A08098D04B30A33088900831608141E
:100540008312080832188E05B2188E00321DAA2AAE
:1005500008098E04B30A330889008316081483122D
:10056000080832188F05B2188F00321DB92A080901
:100570008F0408008312B3008900831608148312C5
:1005800008083218A605B218A600321DC92A0809A3
:10059000A604B30A330889008316081483120808D6
:1005A0003218A705B218A700321DD82A0809A704D7
:1005B000B30A330889008316081483120808321816
:1005C000A805B218A800321DE72A0809A804B30A32
:1005D0003308890083160814831208083218A90505
:1005E000B218A900321DF62A0809A9040800A100C2
:1005F0002130A000031444201222A00BFB2AA10BDF
:10060000F82A0800A1002130A0000314442024226D
:10061000A00B062BA10B032B0800A1002130A0008A
:1006200003140130AA2112220130B421A00B112B96
:10063000A10B0E2B0800A2000130A1003618A1006A
:10064000B618A10036183C30B6180030A3001030A0
:10065000A0008B138B1B292B36190130B6190430DF
:10066000361A0230B2002308B61A7D22361BBA228F
:100670003618FC30B6180430A3078B173618442000
:0E068000B6184420A00B292BA10B222B08003A
:10420000FE00FF00FF00FF00FD00FF00FF007F0039
:10421000FB00FF00FF00BF00F700FF00FF00DF0012
:10422000EF00FF00FF00EF00DF00FF00FF00F700DE
:10423000BF00FF00FF00FB00FF00FF000F00FC00BD
:104240007F00FF00F700FF00FF00FE00FB00FF0003
:10425000FF00FD00FD00FF00FF00FB00FE00FF006F
:10426000FF007700FF00FF00FF00AF00FF00FF002E
:10427000FF00DF00FF00FF00FF00FF00FF00FF0066
:00000001FF
