:100000000AC022C021C020C01FC01EC02CC01CC0FE
:100010001BC01AC019C011241FBECFEDCDBF10E008
:10002000A0E6B0E0ECE2F7E003C0C89531960D928F
:10003000A637B107D1F710E0A6E7B0E001C01D92E6
:10004000AE38B107E1F7FBC2DBCF97E080FD02C01D
:10005000C49801C0C49AC69AC69886959150B0F7C4
:10006000C59AC59808951F920F920FB60F9211244A
:100070002F933F934F935F936F937F938F939F93B0
:10008000AF93BF93EF93FF93809179008F5F80933D
:10009000790090917F00913021F48091790080FD6A
:1000A00005C0809180008150809380008091800005
:1000B000882319F481E080937D0080917C0088235F
:1000C00021F080917C00815001C08AE080937C0007
:1000D00080917900877049F480917B00882329F012
:1000E00080917B00815080937B008091790080FD1E
:1000F00005C0809182008F5F8093820082B38C7FE5
:1001000082BB992341F19130C1F48091820087FF35
:1001100049C08091790080FD08C080918800E82F57
:10012000FF27E05AFF4F808136C080918400E82F7E
:10013000FF27E05AFF4F808133C0923031F4809125
:1001400082008670863071F106C0933071F4809120
:10015000820084FF27C08091790080FD03C08091D8
:100160008C00DDCF80918100E2CF9430D9F4809172
:10017000820086FF06C0809179008370813071F023
:1001800008C08091820086FD0DC080917900837047
:1001900029F48091700059DF919A04C08091710018
:1001A00054DF909AFF91EF91BF91AF919F918F9102
:1001B0007F916F915F914F913F912F910F900FBE63
:1001C0000F901F90189580E090E09DD2809384005E
:1001D00081E090E098D28093880084E0809387004B
:1001E00084E3809376008FED8093830021E0209359
:1001F0007F0090EF90938B0088E0809380001092B6
:100200008D0018BA97BB8CE382BB8FE781BB83E07C
:1002100083BF2EBD82E089BF7894089520917C0031
:100220002223F9F486B390918700943021F48F70E3
:10023000C1F485E00AC09530A1F480FF03C020938B
:100240008700089581FF04C081E0809387000895AE
:1002500082FF02C082E0F9CF83FF03C083E0809376
:1002600087000895982F82B3892B82BB0895982F19
:10027000909582B3892382BB0895309176002091B6
:1002800083007091860040917A0052E0932F322FC4
:10029000892F8095881F8827881F96FF8F5F94FF7E
:1002A0008F5F33FF8F5F990F37FD9F5F232F220FE3
:1002B0008170280F322F515059F7392F822F8370B8
:1002C000871709F44F5F652F871709F461E0952FB1
:1002D000433008F091E09623C1F640937A002093D2
:1002E000830030937600433010F090937A0080932F
:1002F0008600089580917700843020F490917800F2
:10030000282F0BC0883028F490918500282F245086
:1003100004C090918A00282F2850220F83E0022EDB
:1003200001C0880F0A94EAF7982301C096952A9590
:10033000EAF7892F0895F89410927F0082B38C63B6
:1003400082BB8CB5809383008DB5809376008BEE55
:1003500080938B001092800081E080937D008FEF6E
:10036000809377001092810010928C00789486B36D
:100370008F7021F0000086B38F70E1F780E28093E8
:100380007B0080917B00882329F0000080917B0016
:100390008823D9F70895982F82B3837C9C73892B87
:1003A00082BB6093800080918000882329F0000048
:1003B000809180008823D9F7089580937F0083304F
:1003C00059F588E780937B0080917B00882309F4AE
:1003D00063C082B3837C82BB80E88093800080917D
:1003E0008000882329F00000809180008823D9F7BD
:1003F00082B38C6382BB88E180938000809180000F
:10040000882329F00000809180008823D9F780910B
:100410007B008823F1F640C0F8946091810080E071
:1004200090E079D160918C0081E090E074D180916E
:1004300081008093840080918C0080938800789460
:1004400088E780937B0082B38C6382BB80917B00C2
:10045000882311F16AE084E09EDF84E003DF6AE034
:1004600088E099DF88E0FEDE6AE080E194DF80E1E9
:10047000F9DE6AE080E28FDF80E2F4DE6AE080E1AC
:100480008ADF80E1EFDE6AE088E085DF88E0EADE8F
:1004900080917B008823F1F620E080918100882301
:1004A00009F421E090E080918C00882309F491E028
:1004B000922320E086B38F708F3009F421E09223DD
:1004C00009F441C084E080937F0080EF80937B003B
:1004D00082B38C6382BB80917B008823A1F16AE0A8
:1004E00084E059DF6AE08CE056DF6AE08CE153DF9C
:1004F0006AE08CE350DF6AE088E34DDF6AE080E386
:100500004ADF6AE080E247DF6AE080E044DF6AE0D9
:1005100080E241DF6AE080E33EDF6AE088E33BDFC0
:100520006AE08CE338DF6AE08CE135DF6AE08CE07A
:1005300032DF6AE084E02FDF6AE080E02CDF809128
:100540007B00882361F681E080937F0080EF8093B9
:100550008B0080938000089510927D0080918D0023
:10056000882309F062C081E080938D0090918B0018
:100570009093800080917F008823B9F59C3910F01A
:10058000955009C09C3610F0935005C0903310F080
:10059000925001C0915090938B00809177008F5FB3
:1005A000809377008C3019F481E080937E008091F5
:1005B0007E00813009F441C090918A00990F990F13
:1005C00020918500822F8295869586958370980F5D
:1005D00090938A00220F220F809178008295869551
:1005E00086958370280F2093850080917800880F6E
:1005F000880F8093780041DE982F80917800890FD2
:10060000809378008370813049F0813028F0823007
:1006100041F0833041F0089584E001C088E027DE96
:10062000089580E1FCCF80E2FACF10928D0082B372
:100630008C6382BB80E28093800008950895CFEDA3
:10064000D0E0DEBFCDBFBFDDE9DD1091870012FD38
:1006500032C0C0917F00CC2351F50C2F4BDE181710
:1006600009F401E09C2F809177008F3F09F091E021
:100670000923C9F08150809377008F3F19F482B32A
:100680008C6382BBF894809181008F5F809381009E
:10069000803139F480918C008F5F80938C001092B0
:1006A0008100789405C081E080937E0001C043DE24
:1006B00084E08093870080917D00813009F44CDFD5
:1006C00020917E00213009F0BFCF10927E0050E0D3
:1006D00090918C0080918800891708F4522F30E0A7
:1006E000981709F4322F40E09091810080918400A6
:1006F000891708F4422F3423532B11F082E001C0F4
:1007000083E05BDEA1CFE199FECF9FBB8EBBE09A79
:1007100099278DB30895E199FECF9FBB8EBB6DBB2A
:0C0720000FB6F894E29AE19A0FBE08951B
:10072C00014F12064C24200F000408606142603710
:06073C0008200408102053
:00000001FF
