:1000000012C02AC029C028C027C026C036C024C0BC
:1000100023C022C021C020C01FC01EC01DC01CC0E4
:100020001BC01AC019C011241FBECFEDCDBF10E0F8
:10003000A0E6B0E0E2E3F7E002C005900D92A6373B
:10004000B107D9F710E0A6E7B0E001C01D92AE38C5
:10005000B107E1F7F5D26CC3D3CF97E080FD02C0C2
:10006000C49801C0C49AC69AC69891509F3F11F097
:100070008695F4CFC59AC59808951F920F920FB632
:100080000F9211242F933F934F935F936F937F931E
:100090008F939F93AF93BF93EF93FF9380917900DA
:1000A0008F5F8093790020917F00213021F480912F
:1000B000790080FD05C08091800081508093800090
:1000C00080918000882319F481E080937D008091E5
:1000D0007C00882321F080917C00815001C08AE05F
:1000E00080937C0080917900992787709070892B8C
:1000F00049F480917B00882329F080917B00815016
:1001000080937B008091790080FD05C08091820002
:100110008F5F8093820082B38C7F82BB222311F198
:10012000213091F48091820087FF4AC0809179004C
:1001300080FD07C0E0918800FF27E05AFF4F8081D3
:1001400038C0E091840017C0223031F480918200E1
:1001500086708630A9F106C0233091F48091820028
:1001600084FF2EC08091790080FD03C0E0918C0057
:10017000E3CFE0918100FF27E05AFF4F80811EC04E
:100180002430F1F48091820086FF06C080917900CE
:100190008370813061F410C08091820086FD10C0B0
:1001A00080917900992783709070892B29F4809130
:1001B000700053DF919A04C0809171004EDF909AD5
:1001C000FF91EF91BF91AF919F918F917F916F912F
:1001D0005F914F913F912F910F900FBE0F901F9005
:1001E0001895A0E0B0E090D2802D80938400A1E02B
:1001F000B0E08AD2802D8093880084E080938700CD
:1002000084E3809376008FED8093830021E0209338
:100210007F0090EF90938B0088E080938000109295
:100220008D0018BA97BB8CE382BB8FE781BB83E05C
:1002300083BF2EBD82E089BF7894089580917C00B1
:10024000882319F586B320918700243039F4992743
:100250008F709070892BC9F485E00FC02530A9F408
:10026000992780FF03C010928700089581FF02C084
:1002700081E003C082FF04C082E08093870008957C
:1002800083FF03C083E080938700089592B3982B87
:1002900092BB089592B38095982392BB0895709174
:1002A0008600509176004091830060917A0092E040
:1002B000852F8095881F8827881F252F332726FFA5
:1002C0008F5F24FF8F5F43FF8F5F550F47FD5F5F99
:1002D0008170440F480F915059F7842F837087170E
:1002E00009F46F5F90E0633008F091E0871711F434
:1002F0009923E9F6509376004093830060937A0047
:10030000992311F010927A0080938600992708951E
:1003100020917700243018F44091780009C02830EB
:1003200020F440918500245003C040918A00285059
:10033000220F332783E090E0022E02C0880F991F1E
:100340000A94E2F74823842F992702C09595879550
:100350002A95E2F799270895F89410927F0082B3C6
:100360008C6382BB8CB5809383008DB580937600BF
:100370008BEE80938B001092800081E080937D0053
:100380008FEF809377001092810010928C00789408
:1003900001C0000086B399278F709070892BC9F730
:1003A00080E280937B0001C0000080917B00882365
:1003B000D9F7089592B38C73937C892B82BB609399
:1003C000800001C00000809180008823D9F7089543
:1003D00080937F00833009F588E780937B0018C005
:1003E00082B3837C82BB80E88093800001C00000E0
:1003F000809180008823D9F782B38C6382BB88E127
:100400008093800001C00000809180008823D9F78C
:1004100080917B00882321F739C0F8948091810076
:10042000A0E0B0E0082E78D180918C00A1E0B0E08F
:10043000082E72D1809181008093840080918C007D
:1004400080938800789488E780937B0082B38C63E4
:1004500082BB18C06AE084E0ADDF929A6AE088E06F
:10046000A9DF939A6AE080E1A5DF949A6AE080E2CE
:10047000A1DF959A6AE080E19DDF949A6AE088E0C6
:1004800099DF939A80917B00882321F786B320E03F
:1004900030E08F708F3011F421E030E090E08091F7
:1004A0008100882309F491E040E080918C0088234A
:1004B00009F441E09423892F992728233923232BFA
:1004C000F1F184E080937F0080EF80937B0082B322
:1004D0008C6382BB30C06AE084E06CDF6AE08CE051
:1004E00069DF6AE08CE166DF6AE08CE363DF6AE083
:1004F00088E360DF6AE080E35DDF6AE080E25ADF84
:100500006AE080E057DF6AE080E254DF6AE080E37F
:1005100051DF6AE088E34EDF6AE08CE34BDF6AE09C
:100520008CE148DF6AE08CE045DF6AE084E042DF8E
:100530006AE080E03FDF80917B00882361F681E004
:1005400080937F0080EF80938B00809380000895DC
:100550001F9310927D0080918D00882309F066C062
:1005600081E080938D0090918B009093800080912A
:100570007F008823B9F59C3910F0955009C09C364E
:1005800010F0935005C0903310F0925001C091507C
:1005900090938B00809177008F5F809377008C30F1
:1005A00019F481E080937E0080917E00813009F40F
:1005B00045C090918A00990F990F20918500822F54
:1005C0008295869586958370890F80938A00220F85
:1005D000220F809178008295869586958370820F90
:1005E0008093850010917800110F110F10937800FF
:1005F00056DE810F80937800992783709070813048
:10060000910571F0823091051CF4892B39F016C0E8
:100610008230910539F0039789F406C092980EC094
:1006200093980CC094980AC0959808C010928D00B9
:1006300082B38C6382BB80E2809380001F91089517
:10064000CFEDD0E0DEBFCDBFCCDDF8DD109187006F
:1006500012FD2DC080917F00882329F559DE9091ED
:1006600077001817E1F49F3FD1F0892F81508093D4
:1006700077008F3F19F482B38C6382BBF89480912A
:1006800081008F5F80938100803139F480918C00EC
:100690008F5F80938C0010928100789405C081E078
:1006A00080937E0001C058DE84E0809387008091B3
:1006B0007D00813009F44CDF80917E00813029F685
:1006C00010927E0050918C004091880020E05417D9
:1006D00009F421E030E09091810080918400891735
:1006E00008F431E02323822F992720E030E04517DA
:1006F00010F421E030E0822B932B892B11F082E063
:1007000001C083E065DEA1CFE199FECFBFBBAEBBE8
:10071000E09A11960DB20895E199FECFBFBBAEBB32
:100720000DBA11960FB6F894E29AE19A0FBE0895A9
:02073000FFCFF9
:10073200014F12064C24200F000408603142303869
:060742000820040810204D
:00000001FF
